:100000000C9434000C9446000C9446000C9446006A
:100010000C9446000C9446000C9446000C94460048
:100020000C9446000C9446000C9446000C94460038
:100030000C9446000C9446000C9446000C94460028
:100040000C9446000C9446000C9446000C94460018
:100050000C9446000C9446000C9446000C94460008
:100060000C9446000C94460011241FBECFEFD8E03C
:10007000DEBFCDBF21E0A0E0B1E001C01D92A23003
:10008000B207E1F70E9448000C946A000C9400004B
:1000900081E08093C5008FE98093C40086E080935F
:1000A000C20088E18093C1008091C00087FFFCCF2F
:1000B0008091C6009091C00095FFFCCF8093C60050
:1000C000809100019091010101969093010180932C
:0800D0000001EACFF894FFCF14
:00000001FF
